S022000041544D454741333220415320444953504C415920454E47494E452E737265632E
S11300000C942A000C9447000C9447000C9447006D
S11300100C9447000C9447000C9447000C947D000A
S11300200C9447000C9447000C9447000C94470030
S11300300C9447000C9447000C9447000C94470020
S11300400C9447000C9447000C9447000C94470010
S11300500C94470011241FBECFE5D8E0DEBFCDBF0E
S113006011E0A0E6B0E0E6EDF2E002C005900D92EA
S1130070AA3EB107D9F721E0AAEEB1E001C01D9272
S1130080A53FB207E1F70E9478000C9469010C9433
S1130090000080EF8ABB8FEF84BB81BB1FBC8CE068
S11300A08EBD80E890E09BBD8ABD80E189BF7894D5
S11300B0089539B33F708091EE013817C1F0309341
S11300C0EE011092EC0120E010C0822F90E040E499
S11300D0349FF0011124E655FF4FE80FF91F4081CA
S11300E0FC01E051FE4F40832F5F243070F30895EC
S11300F00E9449000E945900FDCF1F920F920FB633
S11301000F9211242F933F934F935F936F937F9399
S11301108F939F93AF93BF93EF93FF938091EF01DE
S11301208F5F8093EF01853009F0AEC01092EF012C
S11301302091ED0130E02C5F3F4F81E090E002C060
S1130140880F991F2A95E2F780958BBBE091ED010A
S1130150F0E0E051FE4FE08180ED8E0F8A30B8F47C
S1130160F0E0F097EE0FFF1FE05AFF4F808185BB50
S1130170E091ED01F0E0E051FE4FE081F0E0F09716
S1130180EE0FFF1FE05AFF4F818182BB1AC08FEB35
S11301908E0F8A31B0F4F0E0F797EE0FFF1FE05AAC
S11301A0FF4F808185BBE091ED01F0E0E051FE4F0F
S11301B0E081F0E0F797EE0FFF1FE05AFF4F8181D7
S11301C082BB8091ED01833020F48F5F8093ED0139
S11301D002C01092ED018091EA019091EB01019629
S11301E09093EB018093EA01C29709F04DC01092FD
S11301F0EB011092EA0140E022C0E091EE01242FCD
S113020030E08091EC01B901680F711DCB0170E4FD
S1130210E79FF0011124E655FF4FDF010D90002008
S1130220E9F71197BD016E1B7F0B0E945501E80F82
S1130230F91F8081F901E051FE4F80834F5F443004
S1130240E0F28091EC0190E00196E091EE0120E46F
S1130250E29FF0011124E655FF4FDF010D900020CD
S1130260E9F71197BD016E1B7F0B0E945501809326
S1130270EC01DF010D900020E9F71197AE1BBF0BD5
S1130280149711F41092EC01FF91EF91BF91AF918B
S11302909F918F917F916F915F914F913F912F919A
S11302A00F900FBE0F901F901895AA1BBB1B51E116
S11302B007C0AA1FBB1FA617B70710F0A61BB70BD2
S11302C0881F991F5A95A9F780959095BC01CD0177
S10902D00895F894FFCF2D
S11302D63F0C0604DB008F00E600ED00FD00011470
S11302E6FF00E700F7008F1239000F12F900F10042
S11302F6BD00F60009121E007024380036053621AA
S11303063F00F3003F20F3208D0101123E00300C24
S11303163628002D0015090C00004552524F520094
S113032600000000000000000000000000000000C3
S113033600000000000000000000000000000000B3
S113034600000000000000000000000000000000A3
S1130356000000000000000000004155544F00005A
S11303660000000000000000000000000000000083
S11303760000000000000000000000000000000073
S11303860000000000000000000000000000000063
S1130396000000000000000000004D414E55414C95
S11303A60000000000000000000000000000000043
S11303B60000000000000000000000000000000033
S11303C60000000000000000000000000000000023
S11303D60000000000000000000053544F500000CD
S11303E60000000000000000000000000000000003
S11303F600000000000000000000000000000000F3
S113040600000000000000000000000000000000E2
S11304160000000000000000000052454C4F41441B
S113042652455155495245000000000000000000A5
S113043600000000000000000000000000000000B2
S113044600000000000000000000000000000000A2
S10D04560000000000000000000098
S9030000FC
