S01000004A4F59535449434B2E73726563A4
S113000045C0000060C000005EC000005CC000008D
S11300105AC0000058C0000056C0000054C0000080
S113002052C0000050C00000A4C100004CC0000039
S11300304AC0000048C0000046C0000044C00000A0
S11300402CC1000040C000003EC000003CC00000C5
S11300503AC0000080C0000036C0000034C0000078
S113006032C0000030C000002EC000002CC00000D0
S11300702AC0000028C0000026C0000024C00000E0
S113008022C0000020C000001EC0000011241FBEBA
S1130090CFEFD0E1DEBFCDBF11E0A0E0B1E0E4EBF3
S11300A0F3E000E00BBF02C007900D92AC30B10743
S11300B0D9F721E0ACE0B1E001C01D92A531B2074F
S11300C0E1F746D075C19CCF8FEF8ABB87BB84BB59
S11300D0109261008EE3809364008EEF809365003C
S11300E087E083BF80910B0182BF83E085BD14BC90
S11300F081E487BF7894089581E09091140191116F
S113010080E080931401811102C017B802C081E01D
S113011087B98FEC86B986B18FE99FE00197F1F733
S113012000C000008091630080FF04C081E08093E0
S1130130000102C01092000180910001813019F485
S113014083E085BD089581E08093010115BC089585
S1130150BBDFD2DFFECF1F920F920FB60F92112496
S11301602F933F934F935F938F939F9380911401A9
S1130170882321F0813009F445C084C084B195B14D
S113018090931301809312019C01265F3140253125
S11301903105A0F48091010190E09C0122953295F3
S11301A0307F3227207F3227880F991F880F991FAD
S11301B0880F991F822B809588BB11C0880F892FC7
S11301C0881F990B91952091010130E0A90102C08B
S11301D0440F551F8A95E2F7CA01809588BB809128
S11301E0120190911301969587959695879580585D
S11301F091099C0122F422273327281B390B2093D1
S11302000B0140C084B195B190931101809310010A
S11302109C01265F31402531310598F4809101011C
S113022090E09C0122953295307F3227207F32273F
S1130230880F991F880F991F880F991F822B85BBE0
S11302400FC0880F892F881F990B91952091010168
S113025030E0A90102C0440F551F8A95E2F745BB5F
S113026080911001909111019695879596958795A7
S1130270805891099C0122F422273327281B390B2B
S113028020930A019F918F915F914F913F912F91FC
S11302900F900FBE0F901F9018951F920F920FB6DC
S11302A00F9211240BB60F922F933F938F939F932A
S11302B0EF93FF9380910B0182BF80910F018F5FB9
S11302C080930F01843109F047C010920F0180918F
S11302D00D01807F20911201309113012F3F91E095
S11302E03907A0F490910C01E92FF0E0EE5FFE4F86
S11302F02081822B80930D01911104C087E08093AB
S11303000C0127C0915090930C0123C02115324059
S1130310B8F020910C0130E0F901EE5FFE4F9081BE
S1130320892B80930D01C9010196877090789923D8
S113033024F40197886F9F6F019680930C0109C084
S1130340E0910C01F0E0EE5FFE4F9081892B8093E9
S11303500D0180910D018BBBFF91EF919F918F91C6
S11303603F912F910F900BBE0F900FBE0F901F90D7
S113037018951F920F920FB60F9211248F939F938B
S113038014BC80910E018F5F80930E01843649F472
S113039010920E0181E090910101911180E080930F
S11303A001019F918F910F900FBE0F901F90189590
S10703B0F894FFCFEB
S10F03B4010101030206040C080980800A
S9030000FC
