:1000000012C02CC02BC02AC029C028C05BC026C08B
:1000100025C024C023C022C021C020C01FC01EC0D4
:100020001DC01CC01BC011241FBECFE5D4E0DEBF25
:10003000CDBF11E0A0E6B0E0EEE8F2E002C005902E
:100040000D92A83AB107D9F721E0A8EAB1E001C0C2
:100050001D92A33BB207E1F732D017C1D1CF80EF99
:1000600087BB8FE784BB8FEF81BB1FBC8CE08EBD4D
:1000700080E890E09BBD8ABD80E189BF78940895B7
:1000800036B33F708091AC013817C1F03093AC01AA
:100090001092AA0120E010C0822F90E040E4349F2B
:1000A000F0011124E855FF4FE80FF91F4081FC01D2
:1000B000E255FE4F40832F5F243070F30895CFDF69
:1000C000DFDFFECF1F920F920FB60F9211242F93F6
:1000D0003F934F936F937F938F939F93AF93BF9370
:1000E000EF93FF938091AD018F5F8093AD018530D9
:1000F00009F0BBC01092AD018FEF88BB15BA12BAE0
:100100002091AB0130E02C5F3F4F81E090E002C0D6
:10011000880F991F2A95E2F7809588BBE091AB0183
:10012000F0E0E255FE4FE08180ED8E0F8A30E8F47A
:10013000F0E0F097EE0FFF1FE05AFF4F808185BB84
:10014000E091AB01F0E0E255FE4FE081F0E0F09786
:10015000EE0FFF1FE05AFF4F80819181880F892F9A
:10016000881F990B919582BB20C08FEB8E0F8A312F
:10017000E0F4F0E0F797EE0FFF1FE05AFF4F8081A9
:1001800085BBE091AB01F0E0E255FE4FE081F0E08D
:10019000F797EE0FFF1FE05AFF4F80819181880F84
:1001A000892F881F990B919582BB8091AB01833079
:1001B00020F48F5F8093AB0102C01092AB0180915D
:1001C000A8019091A90101969093A9018093A8019B
:1001D000C29709F04AC01092A9011092A80120917B
:1001E000AA01822F90E003966091AC0170E0DB01E0
:1001F0000024B695A7950794B695A7950794BA2FAE
:10020000A02DA855BF4FFD0101900020E9F73197BF
:10021000EA1BFB0BE817F90728F02F5F2093AA01D0
:1002200040E021C01092AA01FBCF242F30E0809142
:10023000AA01F901E80FF11DCF0183709927FB0195
:100240000024F695E7950794F695E7950794FE2F19
:10025000E02DE855FF4FE80FF91F8081F901E255C5
:10026000FE4F80834F5F443000F3FF91EF91BF91C9
:10027000AF919F918F917F916F914F913F912F916E
:0E0280000F900FBE0F901F901895F894FFCFAF
:10028E003F0C0604DB008F00E600ED00FD000114BC
:10029E00FF00E700F7008F1239000F12F900F1008E
:1002AE00BD00F60009121E007024380036053621F6
:1002BE003F00F3003F20F3208D0101123E00300C71
:1002CE003628002D0015090C4552524F52000000E1
:1002DE000000000000000000000000000000000010
:1002EE000000000000000000000000000000000000
:1002FE0000000000000000000000000000000000F0
:10030E0000000000000000004155544F00000000A6
:10031E0000000000000000000000000000000000CF
:10032E0000000000000000000000000000000000BF
:10033E0000000000000000000000000000000000AF
:10034E0000000000000000004D414E55414C0000E1
:10035E00000000000000000000000000000000008F
:10036E00000000000000000000000000000000007F
:10037E00000000000000000000000000000000006F
:10038E00000000000000000053544F500000000019
:10039E00000000000000000000000000000000004F
:1003AE00000000000000000000000000000000003F
:1003BE00000000000000000000000000000000002F
:0803CE00000000000000000027
:00000001FF
