:1000000045C0000058C0000056C0000054C00000A9
:1000100052C0000050C000004EC000004CC00000A4
:100020004AC0000048C0000046C0000044C00000B4
:1000300042C0000040C000003EC000003CC00000C4
:100040007BC1000038C0000036C0000034C0000092
:1000500032C0000030C000002EC000002CC00000E4
:100060002AC0000028C0000026C0000024C00000F4
:1000700022C0000020C000001EC000001CC0000004
:100080001AC0000018C0000016C0000011241FBED6
:10009000CFEFD0E1DEBFCDBF12E0A0E0B1E0E0E500
:1000A000F3E000E00BBF02C007900D92A03AB10749
:1000B000D9F73FD14BC1A4CF81E58DB908958FB950
:1000C0008FE99FE00197F1F700C00000779BFECF1A
:1000D0000895CF93C62FF3DF8C2FF1DFCF910895D2
:1000E00090E040E018C098130AC0262F30E0082E98
:1000F00002C0220F331F0A94E2F7422B0BC058B301
:1001000021E030E0092E02C0220F331F0A94E2F7EB
:100110002523422B9F5F983030F348BB08951F93EF
:10012000CF93DF9310E030C060E080E0D9DFC12FD3
:1001300010C0FC01EE0FFF1FEE0FFF1FEE0FFF1FA1
:10014000E050FF4FED0FF11D608181E08D0FC1DFA9
:10015000CF5F8C2F90E0212F30E02C5F3F4F821734
:1001600093073CF361E080E0BBDFDF5F01C0D0E0DC
:10017000D830D0F22FEF83ED90E3215080409040B3
:10018000E1F700C000001F5F103388F3DF91CF91CB
:100190001F910895CF9360E080E0A2DFC0E004C02B
:1001A00060E08FE096DFCF5FC430D0F361E080E0A5
:1001B00097DF60E080E094DFC0E004C067E08BE0A0
:1001C00088DFCF5FC430D0F361E080E089DF60E09A
:1001D00080E086DFC0E004C060E089E07ADFCF5FC6
:1001E000C430D0F361E080E07BDF60E080E078DF66
:1001F000C0E004C060E08AE06CDFCF5FC430D0F3C1
:1002000061E080E06DDF60E080E06ADFC0E004C0B4
:1002100061E08CE05EDFCF5FC430D0F361E080E06E
:100220005FDF61E080E05CDFCF91089590E002C085
:10023000959587956A95E2F781700895BF92CF9260
:10024000DF92EF92FF920F931F93CF93DF93CDB77F
:10025000DEB728970FB6F894DEBF0FBECDBF7C0186
:10026000FE01319688E0DF011D928A95E9F7C12CE5
:1002700020C001E010E00C0F1D1F0C0D111DF80136
:10028000B080F701ED0DF11D67E06C198081CEDFC4
:1002900090E00D2C02C0880F991F0A94E2F78B2979
:1002A000D8018C93D39401C0D12CB7E0BD1508F7C9
:1002B000C394E7E0EC15C0F720E00EC0822F90E079
:1002C000F701E80FF91FA1E0B0E0AC0FBD1FA80FC8
:1002D000B91F8C9180832F5F283080F328960FB64A
:1002E000F894DEBF0FBECDBFDF91CF911F910F916C
:1002F000FF90EF90DF90CF90BF900895CF93C0E034
:100300000CC08C2F90E0880F991F880F991F880FC1
:10031000991F80509F4F92DFCF5FC43390F387E0E7
:1003200087BBCADE37DF81E083BF87BF7894CF9178
:100330000895E4DFF4DEFECF1F920F920FB60F9206
:1003400011240F900FBE0F901F901895F894FFCFB7
:1003500000FC22212122FC0000FF89898989760086
:10036000003C42818142240000FF818181423C00A7
:1003700000FF89898989890000FF090909090900A5
:10038000003C42819152340000FF08080808FF0039
:10039000008181FF81810000004181817F01010096
:1003A00000FF18244281000000FF80808080000050
:1003B00000FF02040402FF0000FF030C30C0FF0036
:1003C000003C428181423C0000FF09090909060006
:1003D000003C428181627C8000FF09192949860026
:1003E0000006898989897000000101FF0101000070
:1003F000007F808080807F00000F7080700F000081
:1004000000FF60181860FF0000C324181824C30000
:10041000000204F80402000000C1A1918985830054
:10042000000048A4A4A4F8000000FCA0A040000024
:100430000000609090000000000040A0A0FE0000BE
:10044000000070A8A8900000001090FC141000009C
:1004500000004894946E00000000FC2020C00000C2
:10046000000000E800000000000040907400000060
:100470000000F82050880000000000F80000000094
:100480000010F020C020C0000000E01010E00000CC
:1004900000006090906000000000FC141408000050
:1004A0000000081414FC00000000F02010100000F0
:1004B000000010A8A8400000000010F89000000004
:1004C00000007080807000000000708070000000EC
:1004D000006080608060000000885020508800002C
:1004E0000000B8A0A0F80000000090D0B09000007C
:00000001FF
